:100000000C9461000C9473000C9473000C947300B6
:100010000C9473000C9473000C9473000C94730094
:100020000C9473000C9473000C9473000C94730084
:100030000C9473000C9473000C9473000C94730074
:100040000C9409010C9473000C9473000C947300CD
:100050000C9473000C9473000C9473000C94730054
:100060000C9473000C94730000000000240027001F
:100070002A0000000000250028002B0000000000DE
:1000800023002600290004040404040404040202DA
:100090000202020203030303030301020408102007
:1000A0004080010204081020010204081020000012
:1000B0000008000201000003040700000000000027
:1000C000000011241FBECFEFD8E0DEBFCDBF21E07E
:1000D000A0E0B1E001C01D92A930B207E1F70E9493
:1000E00053010C9454020C940000833081F028F4E6
:1000F000813099F08230A1F008958730A9F08830DE
:10010000B9F08430D1F4809180008F7D03C080915C
:1001100080008F7780938000089584B58F7702C028
:1001200084B58F7D84BD08958091B0008F7703C022
:100130008091B0008F7D8093B00008951F93CF937E
:10014000DF93282F30E0F901E255FF4F8491F90148
:10015000E656FF4FD491F901EA57FF4FC491CC23E3
:10016000C1F0162F81110E947500EC2FF0E0EE0F08
:10017000FF1FEE58FF4FA591B4919FB7F89411114E
:1001800004C08C91D095D82302C0EC91DE2BDC9377
:100190009FBFDF91CF911F910895CF93DF9390E0A0
:1001A000FC01E656FF4F2491FC01EA57FF4F849172
:1001B000882361F190E0880F991FFC01E859FF4FF7
:1001C000C591D491FC01EE58FF4FA591B4916111F6
:1001D00009C09FB7F8948881209582238883EC9189
:1001E0002E230BC0623061F49FB7F8948881322FC0
:1001F000309583238883EC912E2B2C939FBF06C0D0
:100200008FB7F894E8812E2B28838FBFDF91CF9191
:1002100008951F920F920FB60F9211242F933F93C0
:100220008F939F93AF93BF938091050190910601A7
:10023000A0910701B09108013091040123E0230F40
:100240002D3720F40196A11DB11D05C026E8230F0E
:100250000296A11DB11D2093040180930501909386
:100260000601A0930701B0930801809100019091CD
:100270000101A0910201B09103010196A11DB11DE0
:100280008093000190930101A0930201B0930301B8
:10029000BF91AF919F918F913F912F910F900FBE82
:1002A0000F901F901895789484B5826084BD84B5B2
:1002B000816084BD85B5826085BD85B5816085BD61
:1002C00080916E00816080936E0010928100809119
:1002D00081008260809381008091810081608093A1
:1002E0008100809180008160809380008091B100C6
:1002F00084608093B1008091B00081608093B000F1
:1003000080917A00846080937A0080917A00826084
:1003100080937A0080917A00816080937A00809146
:100320007A00806880937A001092C10061E08AE0D0
:100330000E94CD0061E089E00E94CD0061E08BE089
:100340000E94CD0062E087E00E94CD0035EB632E75
:1003500030E0732E41EAE42E40E0F42E5DE8C52E35
:1003600050E0D52E69EBA62E60E0B62E70E0872E09
:1003700070E0972E20E4522E50927C0080917A00FB
:10038000806480937A0080917A0086FDFCCFC091D2
:10039000780080917900D0E0D82BD7FD2396D595B1
:1003A000C795D595C795F3018491F7011491F6018E
:1003B00004910023A1F081110E947500E02FF0E06C
:1003C000EE0FFF1FE458FF4FA591B4918C911823B5
:1003D00091E080E009F490E0092F182F02C000E0BE
:1003E00010E061E08BE00E94CD00209711F460E006
:1003F00004C0CF3FD10529F461E08BE00E949E004C
:1004000042C0F50184918330F9F048F48130B9F0AD
:100410008230A1F584B5806284BDC8BD34C0873008
:10042000E9F0883019F1843049F5809180008062CC
:1004300080938000D0938B00C0938A0024C084B541
:10044000806884BDC7BD1FC0809180008068809394
:100450008000D0938900C093880015C08091B000BF
:1004600080688093B000C093B3000DC08091B0004D
:1004700080628093B000C093B40005C0C038D1053D
:100480000CF0BACFB4CFB80181E068278AE00E94AF
:100490009E00602F89E00E949E008114910409F45F
:0C04A0006BCF0E94000066CFF894FFCFE5
:00000001FF
